:100000000C942A190C945B190C945B190C945B19D1
:100010000C945B190C945B190C945B190C945B1990
:100020000C945B190C945B190C945B190C945B1980
:100030000C945B190C945B190C945B190C945B1970
:100040000C945B190C9421A40C945B190C945B190F
:100050000C945B190C94DDAA0C94A3BC0D94C508F8
:100060000C945B190C945D190C945B190C945B193E
:100070000C945B190C945B190C945B190C945B1930
:100080000C945B190C945B190C945B190C945B1920
:100090000C945B190C945B190C945B190C945B1910
:1000A0000C945B190C945B190C945B190C945B1900
:1000B0000C945B190C945B190C945B190C945B19F0
:1000C0000C945B190C945B190C945B190C945B19E0
:1000D0000C945B190C945B190C945B190C945B19D0
:1000E0000C945B19A74CA74CB24CB24CB24CBD4C13
:1000F000BD4CBD4CD24CC84CC84CC84C22BD31BDC7
:1001000050BD5FBD7ABD89BDA4BDA9BDACBDB1BDAB
:10011000B4BDB9BDC3BD1301DF00D500E700DD00EC
:10012000F100F300FB00E100E3001501E900F50038
:100130000301F1001D01E5001701ED00090119019E
:100140001B01FD00D900D70011010B011F01DB00CD
:10015000EB0005010101D90007010F010D01084A5B
:10016000D73B3BCE016E84BCBFFDC12F3D6C7431CB
:100170009ABD56833DDA3D00C77F11BED9E4BB4C22
:100180003E916BAAAABE000000803F05A84CCDB2EC
:10019000D44EB93836A9020C50B9918688083CA6CD
:1001A000AAAA2ABE000000803F000D94FD090D940C
:1001B000B20A0D94E50A0D94C40A0D94110A0D9427
:1001C000F8090D942B0A0D94350A0D94760A0D94B6
:1001D000070A0D94490A0D94CA0A0D94AB0A0D94AE
:1001E0007C0B0D948A0A0D941B0A0D94580A0D94E9
:1001F000B8030D948F030D94230A0D94A70A0D9450
:10020000B2080D94D20A0D94620A0D94CE0A0D9490
:10021000D80A0D94AE0A0D94BC0A0D94E00A0D9410
:10022000DC0A0D94B60A0D94F3090D943F0A0D945F
:10023000800A0D949D0A0D94A10A0D946C0A0D94E8
:10024000C00A20496E76616C6964206578747275A5
:1002500064657220005072696E7465722068616C0A
:100260007465642E206B696C6C28292063616C6C4A
:10027000656421004B494C4C45442E20004B494CB1
:100280004C45442E200020746F6F206C6F6E6720E9
:10029000657874727573696F6E2070726576656EBD
:1002A0007465640020636F6C642065787472757384
:1002B000696F6E2070726576656E746564006F6B31
:1002C00000526573656E643A20003A20007A5F6DD3
:1002D00061783A20007A5F6D696E3A20006F6B009A
:1002E0005A204F6666736574004D333030205336A4
:1002F000353920503230300A4D33303020533639C2
:10030000382050323030004F66667365742061705B
:10031000706C6965642E004D3330302053343020CA
:1003200050323030004572723A20546F6F2066614F
:10033000722100546F6F206661722066726F6D20AB
:100340007265666572656E636520706F696E7400B4
:10035000486F74656E64206F6666736574733A00E7
:1003600053657474696E672054726176656C2041C0
:100370006363656C65726174696F6E3A20005365E2
:100380007474696E6720526574726163742041638E
:1003900063656C65726174696F6E3A2000536574B1
:1003A00074696E67205072696E7420416363656C76
:1003B00065726174696F6E3A200053657474696E7A
:1003C00067205072696E7420616E64205472617689
:1003D000656C20416363656C65726174696F6E3A28
:1003E00020004D31343520533C696E6465783E20E1
:1003F0006F7574206F662072616E67652028302DDE
:100400003129007A5F6D61783A20007A5F6D696EFC
:100410003A2000795F6D61783A2000795F6D696EEE
:100420003A2000785F6D61783A2000785F6D696EE0
:100430003A2000205A3A0020593A0020436F756E46
:100440007420583A200020453A00205A3A0020599A
:100450003A00583A004649524D574152455F4E4185
:100460004D453A4D61726C696E2020534F55524391
:10047000455F434F44455F55524C3A6874747073FE
:100480003A2F2F6769746875622E636F6D2F4D6107
:10049000726C696E4669726D776172652F4D61721B
:1004A0006C696E2050524F544F434F4C5F5645522B
:1004B00053494F4E3A312E30204D414348494E4525
:1004C0005F545950453A54617A53746966662045C1
:1004D000585452554445525F434F554E543A32207A
:1004E000555549443A30303030303030302D30308E
:1004F00030302D303030302D303030302D30303005
:100500003030303030303030300A0054617A53743B
:10051000696666204F66662E0054617A5374696678
:10052000662072656164792E0042656420646F6E96
:10053000652E004265642048656174696E672E000F
:1005400048656174696E6720646F6E652E003F00B8
:1005500020573A0048656174696E672E2E2E006F31
:100560006B004B494C4C45442E20004445425547B6
:100570002044525952554E20454E41424C4544006C
:100580004445425547204543484F20454E41424C43
:100590004544005374616E646172642044657669F9
:1005A0006174696F6E3A20004D65616E3A200020DB
:1005B00020207369676D613A2000206D65616E3A95
:1005C00020002020207A3A2000206F662000793A0F
:1005D0002000783A2000506F736974696F6E696EFD
:1005E00067207468652070726F62652E2E2E0A0077
:1005F0003F4E756D626572206F66206C6567732073
:10060000696E206D6F76656D656E74206E6F7420F7
:10061000706C61757369626C652028302D313529E5
:100620002E0A00590058003F53616D706C652073AD
:10063000697A65206E6F7420706C61757369626C85
:10064000652028342D3530292E0A004D3438205AA3
:100650002D50726F626520526570656174616269C8
:100660006C69747920746573740A003F5665726210
:100670006F7365204C6576656C206E6F7420706CAE
:1006800061757369626C652028302D34292E0A004B
:100690002569206D696E2C202569207365630045EE
:1006A0006E642066696C65206C69737400426567CE
:1006B000696E2066696C65206C697374004E6F20EA
:1006C0006D6F76652E0054617A5374696666207288
:1006D000656164792E00526573756D696E6720706F
:1006E00072696E74005761697420666F7220757349
:1006F00065722E2E2E00205A3A200020593A2000F2
:1007000042656420583A2000205A3A200020593A85
:10071000200042656420583A20004730205832308B
:100720003020593135302046323136303000202BE0
:1007300000200A436F7272656374656420426564C9
:10074000204865696768742076732E2042656420AE
:10075000546F706F6C6F67793A200A00202B002B62
:100760002D2D2D2D2D2D2D2D2D2D2D2B0A007C2EBB
:100770002E2E46726F6E742E2E2E7C0A007C4C65D7
:1007800066742E2E52696768747C0A007C2E2E2EA9
:100790004261636B2E2E2E2E7C0A002B2D2D2D2DCB
:1007A0002D2D2D2D2D2D2D2B0A00200A4265642084
:1007B00048656967687420546F706F67726170680C
:1007C000793A200A004D65616E206F662073616D75
:1007D000706C656420706F696E74733A20002064D9
:1007E0003A200020623A200045716E20636F6566F2
:1007F00066696369656E74733A20613A2000284225
:100800002961636B00284629726F6E740028522993
:100810006967687400284C29656674003F4E756DE1
:10082000626572206F662070726F62656420285066
:10083000296F696E747320697320696D706C6175BE
:100840007369626C65202832206D696E696D756D03
:10085000292E0A0052756E6E696E6720696E2044FB
:1008600052592D52554E206D6F6465004732392024
:100870004175746F20426564204C6576656C696EC5
:10088000670A003F2856296572626F7365204C65C0
:1008900076656C20697320696D706C61757369622F
:1008A0006C652028302D34292E00486F6D65205846
:1008B0002F59206265666F7265205A00486F6D651A
:1008C00020582F59206265666F7265205A00576163
:1008D000726E696E673A20486F6D696E6720427567
:1008E0006D702044697669736F72203C203100532B
:1008F0006C6565702E2E2E0020400020403A0020AE
:1009000042403A00202F00205400202F0020423A7D
:1009100000202F0020543A0020706F736974696FB3
:100920006E206F7574206F662072616E67652E0091
:100930003F50726F62652000220A00556E6B6E6F29
:10094000776E20636F6D6D616E643A2022002569B9
:1009500020686F757273202569206D696E757465E6
:100960007300446F6E65207072696E74696E6720E3
:1009700066696C65004B494C4C45442E200053542D
:100980004F505045442E20005072696E746572209D
:1009900073746F707065642064756520746F206572
:1009A00072726F72732E20466978207468652065B4
:1009B00072726F7220616E6420757365204D3939D3
:1009C0003920746F20726573746172742E202854FC
:1009D000656D7065726174757265206973207265EA
:1009E0007365742E20536574206974206166746584
:1009F000722072657374617274696E6729004E6F3C
:100A0000204C696E65204E756D6265722077697441
:100A10006820636865636B73756D2C204C6173741B
:100A2000204C696E653A20004E6F20436865636B09
:100A300073756D2077697468206C696E65206E75BA
:100A40006D6265722C204C617374204C696E653A3E
:100A50002000636865636B73756D206D69736D61EC
:100A60007463682C204C617374204C696E653A2065
:100A7000004C696E65204E756D6265722069732049
:100A80006E6F74204C617374204C696E65204E75D6
:100A90006D6265722B312C204C617374204C696E31
:100AA000653A20004D313130006F6B00446F6E6548
:100AB00020736176696E672066696C652E004D3221
:100AC00039002020506C616E6E65724275666665F5
:100AD0007242797465733A20002046726565204D34
:100AE000656D6F72793A20004A756E20333020327E
:100AF00030313600436F6D70696C65643A200028B0
:100B00006D69726167653333352C2054617A537493
:100B10006966662044656661756C74732900207C83
:100B200020417574686F723A2000323031360020EF
:100B30004C61737420557064617465643A200020C0
:100B400044656661756C74004D61726C696E00205D
:100B5000536F667477617265205265736574002007
:100B60005761746368646F67205265736574002011
:100B700042726F776E206F757420526573657400D2
:100B80002045787465726E616C20526573657400DF
:100B9000506F776572557000737461727400220033
:100BA000656E7175657565696E67202200FFFF01CE
:100BB0000000404000004040000040400080BD4335
:100BC0000000AA4300003E430000000000000000B7
:100BD00000003E430080BD430000AA4300003E43A6
:100BE0000000000000000000000000006563686F66
:100BF0003A004572726F723A007C3C3E5E2B3D3F7C
:100C00002F5B5D3B2C2A225C004D38342058205944
:100C1000205A20450043616E6E6F7420656E7465C6
:100C200072207375626469723A20004D3234004D4F
:100C30003233202573006175746F25692E67006556
:100C400072726F722077726974696E6720746F2098
:100C500066696C65004E6F74205344207072696E33
:100C600074696E67005344207072696E74696E67B0
:100C70002062797465200044656C6574696F6E202C
:100C80006661696C65642C2046696C653A20004693
:100C9000696C652064656C657465643A006F7065A5
:100CA0006E206661696C65642C2046696C653A202B
:100CB0000057726974696E6720746F2066696C658D
:100CC0003A20002E0A006F70656E206661696C65BF
:100CD000642C2046696C653A20002E0A006F70650E
:100CE0006E206661696C65642C2046696C653A20EB
:100CF0000046696C652073656C65637465640020EB
:100D000053697A653A200046696C65206F70656E9C
:100D100065643A20006F70656E206661696C656479
:100D20002C2046696C653A20004E6F77206672650C
:100D300073682066696C653A20004E6F7720646F97
:100D4000696E672066696C653A20002220706F73B7
:100D5000002220706172656E743A2200535542522F
:100D60004F5554494E452043414C4C2074617267A5
:100D700065743A22004B494C4C45442E2000747255
:100D800079696E6720746F2063616C6C2073756283
:100D90002D67636F64652066696C6573207769747D
:100DA0006820746F6F206D616E79206C6576656C5C
:100DB000732E204D4158206C6576656C2069733A1E
:100DC0000053442063617264206F6B006F70656E26
:100DD000526F6F74206661696C656400766F6C7524
:100DE0006D652E696E6974206661696C6564005377
:100DF0004420696E6974206661696C0020204D385A
:100E00003531205A005A2D50726F6265204F666648
:100E100073657420286D6D293A0020204D323030E2
:100E20002044300020204D32303020543120440006
:100E300020204D3230302044002044697361626CC0
:100E400065640046696C616D656E742073657474C9
:100E5000696E67733A0020440020490020204D331A
:100E60003034205000204C00204300204400204912
:100E70000020204D333031205000204C0020430012
:100E800020440020490020500020204D33303120E4
:100E900045005049442073657474696E67733A0065
:100EA00020460020420020204D313435204D312095
:100EB000480020460020420020204D313435204D8E
:100EC000302048004D6174657269616C206865610D
:100ED00074757020706172616D65746572733A002B
:100EE000205A0020590020204D323036205800482A
:100EF0006F6D65206F666673657420286D6D293A85
:100F000000204500205A00205800204200205400B4
:100F100020204D323035205300416476616E636588
:100F200064207661726961626C65733A20533D4D4D
:100F3000696E20666565647261746520286D6D2F29
:100F400073292C20543D4D696E2074726176656C56
:100F500020666565647261746520286D6D2F732944
:100F60002C20423D6D696E696D756D207365676DEE
:100F7000656E742074696D6520286D73292C205866
:100F80003D6D6178696D756D205859206A65726B89
:100F900020286D6D2F73292C20205A3D6D617869B2
:100FA0006D756D205A206A65726B20286D6D2F73E8
:100FB000292C2020453D6D6178696D756D20452097
:100FC0006A65726B20286D6D2F73290020540020F4
:100FD000520020204D323034205000416363656C54
:100FE00065726174696F6E733A20503D7072696EFC
:100FF00074696E672C20523D72657472616374204F
:10100000616E6420543D74726176656C0020450009
:10101000205A0020590020204D3230312058004DF8
:101020006178696D756D20416363656C657261748B
:10103000696F6E20286D6D2F7332293A00204500AC
:10104000205A0020590020204D3230332058004DC6
:101050006178696D756D206665656472617465732C
:1010600020286D6D2F73293A00204500205A00205A
:10107000590020204D393220580053746570732078
:1010800070657220756E69743A0048617264636FAE
:101090006465642044656661756C7420536574747E
:1010A000696E6773204C6F616465640020627974B7
:1010B000657329002073746F72656420736574749E
:1010C000696E67732072657472696576656420283D
:1010D00000206279746573290053657474696E67C2
:1010E000732053746F7265642028004572726F72AA
:1010F0002077726974696E6720746F20454550527D
:101100004F4D210020746F6F206C6F6E67206578E3
:1011100074727573696F6E2070726576656E746532
:10112000640020636F6C6420657874727573696FF6
:101130006E2070726576656E7465640045313A2084
:101140000045303A20005A3A2000593A2000583AD7
:1011500020004D53312C4D53322050696E730A00DC
:101160004D383420582059205A204500656E64734C
:10117000746F7073206869743A205A00205A3A00DC
:10118000656E6473746F7073206869743A205900D7
:1011900020593A00656E6473746F707320686974C7
:1011A0003A20580020583A00656E6473746F70736B
:1011B000206869743A200024F4D43050C38E20C2D1
:1011C000A24017828B7011127A910D816CD90AA8F6
:1011D00061E108C7586607615143061E4B5D05C1B2
:1011E00045A7041A411104093D98037139310340A0
:1011F00036DB0265339102D4305402802E1D026327
:101200002CEE01752AC501B028A001102781018F9D
:101210002564012B244B01E0223401AC211F018DF8
:10122000200D01801FFC00841EED00971DDF00B81B
:101230001CD200E61BC600201BBC00641AB200B220
:1012400019A8000A19A0006A189900D11791004046
:10125000178B00B516840031167E00B31579003A5D
:10126000157300C7146F0058146A00EE13660088E7
:1012700013630025135E00C7125B006C1257001544
:10128000125400C111510070114F0021114B00D6B2
:101290001049008D1047004610440002104200C063
:1012A0000F4000800F3E00420F3C00060F3B00CB7A
:1012B0000E3800930E37005C0E3500270E3400F315
:1012C0000D3200C10D3100900D3000600D2E003246
:1012D0000D2D00050D2C00D90C2B00AE0C2900851E
:1012E0000C29005C0C2700350C27000E0C2600E8AA
:1012F0000B2400C40B2400A00B23007D0B23005AF9
:101300000B2100390B2100180B2000F80A1F00D90F
:101310000A1E00BB0A1E009D0A1D00800A1D0063F4
:101320000A1C00470A1B002C0A1B00110A1A00F7AE
:10133000091A00DD091900C4091900AB0919009246
:101340000917007B091800630917004C09160036BD
:10135000091600200916000A091500F5081500E015
:10136000081400CC081400B8081400A40814009055
:101370000813007D0812006B08130058081200467D
:10138000081200340811002308110012081100018E
:10139000081100F0071000E0071000D0071000C08F
:1013A000071000B0070F00A107100091070E00837F
:1013B000070F0074070F0065070E0057070E00495E
:1013C000070E003B070D002E070E0020070D00132F
:1013D000070D0006070D00F9060C00ED060D00E0F4
:1013E000060C00D4060C00C8060C00BC060C00B0AD
:1013F000060C00A4060B0099060C008D060B00825B
:10140000060B0077060B006C060B0061060A0057FE
:10141000060B004C060A0042060A0038060A002E97
:10142000060A0024060A001A060A00100609000728
:10143000060A00FD050900F4050900EB050900E2B4
:10144000050900D9050900D0050900C7050900BE36
:10145000050900B5050800AD050800A50509009CB3
:10146000050800940508008C050800840508007C28
:10147000050800740508006C050700650508005D97
:10148000050700560508004E050700470507004000
:1014900005080038050700310507002A0507002365
:1014A0000507001C050600160507000F05070008C4
:1014B00005060002050700FB040600F5040700EE20
:1014C000040600E8040600E2040700DB040600D579
:1014D000040600CF040600C9040600C3040600BDCC
:1014E000040600B7040600B1040500AC040600A61B
:1014F000040600A00405009B040600950405009066
:101500000406008A04050085040500800406007AAC
:1015100004050075040500700405006B04050066F1
:10152000040500610405005C040500570405005231
:101530000405004D04050048040500430405003E71
:101540000404003A04050035040500300404002CAE
:1015500004050027040400230405001E0404001AE7
:1015600004040016040500110404000D040400091D
:101570000405000404040000040400FC030400F853
:10158000030400F4030400F0030400EC030400E887
:10159000030400E4030400E0030400DC030400D8B7
:1015A000030400D4030400D0030400CC030400C8E7
:1015B000030300C503030024F404D9201BC40C5CFE
:1015C0000E9804C4095F0265077101F405F900FB78
:1015D00004B30048048700C10369005803550003A1
:1015E000034500BE023A008402310053022A00295A
:1015F00002250004022000E4011C00C8011900AF0C
:10160000011700980114008401130071011000619A
:1016100001100051010E0043010D0036010B002B9B
:10162000010B0020010B00150109000C010900034A
:10163000010800FB000800F3000800EB000700E4CD
:10164000000600DE000600D8000600D2000600CC2E
:10165000000500C7000500C2000500BD000400B978
:10166000000400B5000400B1000400AD000400A9AE
:10167000000400A5000300A20003009F0004009BDB
:1016800000030098000300950002009300030090FF
:101690000003008D0002008B00030088000200861A
:1016A00000020084000300810002007F0002007D30
:1016B0000002007B00020079000200770001007642
:1016C0000002007400020072000100710002006F4D
:1016D0000002006D0001006C0002006A0001006958
:1016E000000200670001006600010065000100645F
:1016F0000002006200010061000100600001005F63
:101700000002005D0001005C0001005B0001005A66
:101710000001005900010058000100570001005667
:101720000001005500010054000100530000005367
:101730000001005200010051000100500001004F63
:101740000001004E0000004E0001004D0001004C61
:101750000001004B0000004B0001004A000100495D
:101760000001004800000048000100470001004659
:101770000000004600010045000000450001004453
:10178000000100430000004300010042000000424D
:101790000001004100000041000100400001003F45
:1017A0000000003F0001003E0000003E0001003D3F
:1017B0000000003D0001003C0000003C0000003C37
:1017C0000001003B0000003B0001003A0000003A2D
:1017D0000001003900000039000100380000003825
:1017E000000000380001003700000037000100361B
:1017F0000000003600000036000100350000003512
:101800000000003500010034000000340000003406
:1018100000010033000000330000003300010032FB
:1018200000000032000000320001003100000031F1
:1018300000000031000100300000003000000030E6
:101840000001002F0000002F0000002F0000002FDB
:101850000001002E0000002E0000002E0001002DCF
:101860000000002D0000002D0000002D0001002CC4
:101870000000002C0000002C0000002C0001002BB8
:101880000000002B0000002B0000002B0001002AAC
:101890000000002A0000002A0000002A00010029A0
:1018A0000000002900000029000000290000002994
:1018B0000001002800000028000000280000002887
:1018C000000000280001002700000027000000277A
:1018D000000000270000002700010026000000266D
:1018E0000000002600000026000000260001002560
:1018F0000000002500000025000000250000002554
:101900000000002500010024000000240000002445
:101910000000002400000024000100230000002338
:10192000000000230000002300000023000000232B
:10193000000000230001002200000022000000221D
:10194000000000220000002200000022000100210F
:101950000000002100000021000000210000002103
:1019600000000021000000210001002000000020F4
:1019700000000020000000200000002000000020E7
:1019800000000020000000200001001F0000001FD8
:101990000000001F0000001F0000001F0000001FCB
:1019A0000000001F0001001E0000001E0000001EBD
:1019B0000000001E0000004D494E54454D5020745B
:1019C0007269676765726564004572723A204D49B5
:1019D0004E54454D5020424544004D415854454DCC
:1019E0005020747269676765726564004572723A67
:1019F000204D415854454D5020424544004D494EDC
:101A000054454D502074726967676572656400457E
:101A100072723A204D494E54454D50006265640043
:101A20002C2073797374656D2073746F70706564A6
:101A300021204865617465725F49443A20004D4138
:101A40005854454D5020747269676765726564002B
:101A50004572723A204D415854454D50004B642018
:101A60000023646566696E65202044454641554CF7
:101A7000545F004B69200023646566696E65202011
:101A800044454641554C545F004B7020002364652B
:101A900066696E65202044454641554C545F0050B0
:101AA0004944204175746F74756E652066696E696E
:101AB00073686564212050757420746865206C61BA
:101AC0007374204B702C204B6920616E64204B6432
:101AD00020636F6E7374616E74732066726F6D2015
:101AE00062656C6F7720696E746F20436F6E6669F4
:101AF0006775726174696F6E2E68005049442041A9
:101B000075746F74756E65206661696C65642120FB
:101B100074696D656F757400504944204175746F28
:101B200074756E65206661696C6564212054656D0D
:101B3000706572617475726520746F6F2068696773
:101B40006800204B643A2000204B693A2000204B6B
:101B5000703A200020436C617373696320504944DC
:101B600020002054753A2000204B753A2000206D4B
:101B700061783A2000206D696E3A200020643A2096
:101B80000020626961733A20001000AD0330016AE1
:101B90000150022B0170030A019004F500B005E525
:101BA00000D006D800F007CE001009C500300ABEEC
:101BB00000500BB700700CB100900DAB00B00EA63A
:101BC00000D00FA200F0109D001012990030139564
:101BD000005014920070158E0090168B00B017877D
:101BE00000D0188400F0198100101B7E00301C7B8F
:101BF00000501D7900701E7600901F7300B0207099
:101C000000D0216E00F0226B0010246900302566A0
:101C100000502663007027610090285E00B0295CA8
:101C200000D02A5900F02B5600102D5400302E51B0
:101C300000502F4E0070304B0090314800B03245BC
:101C400000D0334200F0343E0010363B00303737CE
:101C5000005038330070392E00903A2900B03B23F1
:101C600000D03C1B00F03D1100103F0100F03F0090
:101C70000070012C0190012701B0012201C0011D5B
:101C800001F00118011002130130020E0160020977
:101C90000190020401C002FF000003FA004003F5B6
:101CA000008003F000D003EB002004E6007004E1A4
:101CB00000E004DC004005D700C005D2004006CD9E
:101CC00000D006C8008007C3003008BE00F008B985
:101CD00000C009B400B00AAF00B00BAA00D00CA538
:101CE00000000EA000500F9B00C0109600501291F3
:101CF0000000148C00C0158700B0178200B0197D59
:101D000000D01B7800001E730040206E00902269F6
:101D100000F024640040275F0090295A00E02B5512
:101D200000102E500020304B0010324600E03341AE
:101D30000090353C001037370070383200A0392D44
:101D400000B03A2800A03B2300603C1E00103D1963
:101D500000903D1400103E0F00703E0A00C03E058A
:101D600000003F0000436172642072656D6F76650C
:101D700064004361726420696E7365727465640007
:101D80004D343238000920000920002D2D2D2E2D34
:101D90002D002D2D2D002D2D2D002D2D2D002D2D27
:101DA0003A2D2D00426162797374657070696E67B7
:101DB000205800426162797374657070696E6720A3
:101DC0005900426162797374657070696E67205A58
:101DD000004261627973746570205A0042616279D1
:101DE0007374657020590042616279737465702064
:101DF0005800466C6F77203200466C6F77203200B7
:101E0000466C6F77203100466C6F77203100466C4E
:101E10006F7700466C6F770046616E207370656562
:101E2000640046616E2073706565640042656400FD
:101E3000426564004E6F7A7A6C652032004E6F7A8C
:101E40007A6C652032004E6F7A7A6C652031004ED4
:101E50006F7A7A6C65203100537065656400537049
:101E6000656564004D61696E004D6F7665205800B0
:101E70004D6F76652059004D6F7665205A00457884
:101E80007472756465723200457874727564657237
:101E900031004578747275646572320045787472E9
:101EA0007564657231004D6F7665205A004D6F760E
:101EB000652059004D6F76652058004D6F7665207E
:101EC00061786973004D6F766520302E316D6D003D
:101ED0004D6F766520316D6D004D6F766520313028
:101EE0006D6D005072657061726500507265686555
:101EF000617420504C4120426564005072656865F1
:101F0000617420504C4120416C6C005072656865D2
:101F1000617420504C4120320050726568656174D4
:101F200020504C4120310050726570617265005044
:101F300072656865617420414253204265640050B7
:101F40007265686561742041425320416C6C005099
:101F50007265686561742041425320320050726599
:101F60006865617420414253203100507265706190
:101F70007265004D38300053776974636820706F64
:101F8000776572206F6E004D383100537769746346
:101F90006820706F776572206F666600436F6F6CA4
:101FA000646F776E005072656865617420414253BA
:101FB000005072656865617420504C41004D3834A2
:101FC0000044697361626C6520737465707065723A
:101FD00073004D6F76652061786973004732390070
:101FE0004C6576656C206265640053657420686F8B
:101FF0006D65206F66667365747300473238004103
:1020000075746F20686F6D65004D61696E00537463
:102010006F7265206D656D6F727900426564004274
:102020006564004E6F7A7A6C65004E6F7A7A6C65E3
:102030000046616E2073706565640046616E2073B2
:10204000706565640054656D706572617475726564
:102050000053746F7265206D656D6F727900426513
:102060006400426564004E6F7A7A6C65004E6F7A48
:102070007A6C650046616E20737065656400466128
:102080006E2073706565640054656D70657261746F
:102090007572650050726568656174204142532015
:1020A000636F6E66005072656865617420504C41C4
:1020B00020636F6E66005049442D43005049442D03
:1020C00043005049442D44005049442D4400504998
:1020D000442D49005049442D49005049442D500099
:1020E0005049442D500020082046616374002008A8
:1020F0002046616374002008204D6178002008208C
:102100004D6178002008204D696E002008204D693F
:102110006E004175746F74656D70004F6666004F98
:102120006E200046616E2073706565640046616EC6
:102130002073706565640042656400426564004E0A
:102140006F7A7A6C652032004E6F7A7A6C65203235
:10215000004E6F7A7A6C652031004E6F7A7A6C652A
:10216000203100436F6E74726F6C0045737465703C
:10217000732F6D6D004573746570732F6D6D005A0C
:1021800073746570732F6D6D005A73746570732F5F
:102190006D6D005973746570732F6D6D0059737494
:1021A0006570732F6D6D005873746570732F6D6D4E
:1021B000005873746570732F6D6D00412D747261DA
:1021C00076656C00412D74726176656C00412D72EC
:1021D00065747261637400412D7265747261637419
:1021E00000416D6178206500416D61782065004196
:1021F0006D6178207A00416D6178207A00416D61CF
:1022000078207900416D6178207900416D617820F6
:102210007800416D61782078005654726176206DA7
:10222000696E005654726176206D696E00566D6954
:102230006E00566D696E00566D6178206500566DB2
:102240006178206500566D6178207A00566D61785E
:10225000207A00566D6178207900566D617820797A
:1022600000566D6178207800566D617820780056B0
:10227000652D6A65726B0056652D6A65726B005636
:102280007A2D6A65726B00567A2D6A65726B0056FC
:1022900078792D6A65726B005678792D6A65726B54
:1022A00000416363656C00416363656C005A204FB5
:1022B0006666736574005A204F66667365740043E2
:1022C0006F6E74726F6C0046696C2E204469612ECB
:1022D00020320046696C2E204469612E203200466F
:1022E000696C2E204469612E20310046696C2E20D5
:1022F0004469612E2031004520696E206D6D3300E8
:102300004F6666004F6E2000436F6E74726F6C00F4
:10231000526573746F7265206661696C736166657E
:10232000004C6F6164206D656D6F72790053746F3E
:102330007265206D656D6F72790046696C616D65BF
:102340006E74004D6F74696F6E0054656D706572C8
:102350006174757265004D61696E004D3234004DD7
:10236000323320257300022E2E004D61696E004E1F
:102370006F2053442063617264005072696E742050
:1023800066726F6D2053440053746F7020707269D1
:102390006E7400526573756D65207072696E74009D
:1023A0005061757365207072696E7400436F6E744E
:1023B000726F6C00507265706172650054756E6565
:1023C00000496E666F2073637265656E00000609D2
:1023D00000FE070192032120FFFF08FF07FF000016
:1023E0000006000001070706020080808080800050
:1023F00080030202060105A0A005070706000050A1
:1024000050F850F850500507070600002078A070DB
:1024100028F020050707060000C0C81020409818C3
:102420000507070600006090A040A890680203031B
:10243000060104C040800307070601002040808099
:1024400080402003070706010080402020204080B4
:1024500005050506000120A870A820050505060051
:10246000012020F820200203030602FFC04080055F
:102470000101060003F8020202060200C0C00505C1
:1024800005060001081020408005070706000070BF
:1024900088888888887003070706010040C040408C
:1024A0004040E0050707060000708808708080F84B
:1024B000050707060000F81020100808F0050707B8
:1024C00006000010305090F81010050707060000B5
:1024D000F880F00808887005070706000070808003
:1024E000F0888870050707060000F80810202020F3
:1024F0002005070706000070888870888870050727
:102500000706000070888878080870020505060232
:1025100000C0C000C0C00206060602FFC0C000C066
:10252000408004070706000010204080402010056E
:102530000303060002F800F80407070601008040C4
:102540002010204080050707060000708808102032
:10255000002005070706000070880868A8A8700515
:102560000707060000708888F8888888050707062E
:102570000000F08888F08888F005070706000070E2
:10258000888080808870050707060000F0888888AA
:102590008888F0050707060000F88080F08080F842
:1025A000050707060000F88080F080808005070797
:1025B000060000708880B88888700507070600004C
:1025C000888888F88888880107070602008080804C
:1025D00080808080050707060000381010101090DA
:1025E000600507070600008890A0C0A09088050736
:1025F00007060000808080808080F80507070600BD
:102600000088D8A888888888050707060000888879
:10261000C8A89888880507070600007088888888F9
:102620008870050707060000F08888F08080800524
:10263000070706000070888888A8906805070706C5
:102640000000F08888F0A090880507070600007851
:102650008080700808F0050707060000F820202099
:102660002020200507070600008888888888887051
:102670000507070600008888888888502005070716
:102680000600008888888888A8500507070600008B
:1026900088885020508888050707060000888888A9
:1026A00050202020050707060000F8081020408071
:1026B000F8030707060100E08080808080E00505C0
:1026C000050600018040201008030707060100E00E
:1026D0002020202020E00503030600042050880568
:1026E0000101060000F8020202060205804005050D
:1026F0000506000070087888780507070600008046
:1027000080B0C88888F005050506000070808088C4
:10271000700507070600000808689888887805058E
:10272000050600007088F880700507070600003075
:1027300048E0404040400506060600FF7088887863
:1027400008700507070600008080B0C888888801E7
:10275000070706020080008080808080030808064A
:1027600001FF200020202020A040040707060000D1
:10277000808090A0C0A090030707060100C04040E1
:10278000404040E0050505060000D0A8A8A8A8051F
:102790000505060000B0C888888805050506000004
:1027A00070888888700506060600FFF08888F0802B
:1027B000800506060600FF78888878080805050564
:1027C000060000B0C8808080050505060000708006
:1027D0007008F00407070600004040E04040403029
:1027E0000505050600008888889868050505060027
:1027F0000088888850200505050600008888A8A85C
:10280000500505050600008850205088050606067C
:1028100000FF888888780870050505060000F81014
:102820002040F80307070601002040408040402078
:1028300001070706020080808080808080030707F0
:102840000601008040402040408005020206000250
:102850006890000000060000000000060000000074
:102860000006000000000006000000000006000056
:102870000000000600000000000600000000000646
:10288000000000000006000000000006000000003C
:102890000006000000000006000000000006000026
:1028A0000000000600000000000600000000000616
:1028B000000000000006000000000006000000000C
:1028C00000060000000000060000000000060000F6
:1028D00000000006000000000006000000000006E6
:1028E00000000000000600000000000600000000DC
:1028F00000060000000000060000000000060000C6
:1029000000000006000000000006000000000006B5
:1029100000000000000600000000000600000107A3
:10292000070602008000808080808005070706007F
:10293000002070A8A0A870200507070600003040FE
:1029400040E04050A80505050600008870507088DA
:10295000050707060000885020F820F82001070727
:102960000602008080800080808005080806000044
:102970003048205050209060030101060107A00557
:102980000707060000F888B8B8B888F805070706F2
:102990000001700878887800F80505050600012810
:1029A00050A05028050303060001F808080202029F
:1029B0000602064080050707060000F888A88898E8
:1029C000A8F8050101060006F804040406000360E7
:1029D0009090600507070600002020F8202000F8EE
:1029E00004050506000360902040F003050506007D
:1029F00003E020E020E00202020602064080050813
:102A0000080600FF8888888898E880800507070600
:102A1000000078989878181818020202060202C07E
:102A2000C00202020602FF408003050506000340C3
:102A3000C04040E0050707060001708888887000E4
:102A4000F8050505060001A0502850A00507070657
:102A500000008890A858B8080805070706000088F5
:102A600090B848982038050808060000C040C048C3
:102A7000D838080805070706000020002040808895
:102A8000700508080600004020007088F888880556
:102A900008080600001020007088F88888050808DB
:102AA0000600002050007088F88888050808060095
:102AB000006890007088F8888805080806000050B3
:102AC00000708888F88888050808060000205020D3
:102AD0007088F888880507070600003860A0B8E00D
:102AE000A0B80508080600FF708880808870206004
:102AF000050808060000402000F880F080F805086E
:102B000008060000081000F880F080F805080806A4
:102B10000000205000F880F080F80507070600004C
:102B20005000F880F080F80308080601008040009B
:102B3000E0404040E0030808060100204000E0407B
:102B40004040E003080806010040A000E04040408B
:102B5000E0030707060100A000E0404040E0050751
:102B600007060000704848E8484870050808060055
:102B70000068900088C8A8988805080806000040EA
:102B8000207088888888700508080600001020706A
:102B90008888888870050808060000205000708822
:102BA000888870050808060000689000708888888A
:102BB0007005080806000050007088888888700535
:102BC000050506000188502050880508080600FF0A
:102BD0001070A8A8A8A870400508080600004020AA
:102BE0008888888888700508080600001020888872
:102BF00088888870050808060000205000888888AA
:102C00008870050808060000500088888888887049
:102C10000508080600001020885020202020050903
:102C2000090600FFC040704848704040E0040808B2
:102C30000601FF609090A09090E0800508080600D3
:102C40000040200070087888780508080600001009
:102C500020007008788878050808060000205000D9
:102C600070087888780508080600006890007008E9
:102C70007888780507070600005000700878887883
:102C8000050808060000205020700878887805069E
:102C900006060000D02878A0A8500506060600FF0A
:102CA00070808870206005080806000040200070D1
:102CB00088F880700508080600001020007088F869
:102CC00080700508080600002050007088F88070A9
:102CD00005070706000050007088F8807003080898
:102CE00006010080400040C04040E00308080601A3
:102CF0000020400040C04040E003080806010040BA
:102D0000A00040C04040E0030707060100A00040CB
:102D1000C04040E0050707060000A040A0107888EA
:102D200070050808060000689000B0C8888888050B
:102D30000808060000402000708888887005080890
:102D400006000010200070888888700508080600BA
:102D50000020500070888888700508080600006808
:102D60009000708888887005070706000050007082
:102D7000888888700505050600012000F8002005F8
:102D800007070600FF1070A8A8A8704005080806ED
:102D90000000402000888888986805080806000020
:102DA00010200088888898680508080600002050D0
:102DB0000088888898680507070600005000888802
:102DC0008898680509090600FF102000888888F89F
:102DD00008700407070601FFC04060506040E0052E
:102DE00008080600FF5000888888780870000609E7
:102DF00000FE000000000001090008FE00000508B8
:102E00000806000040F0C888889878100508080671
:102E10000000C0F88888888888F805050506000144
:102E20002030F830200508080600002070F8202027
:102E30002020E00509090600FF2070A8A8B88888AE
:102E400070200509090600FFE080C0B0A8283028DE
:102E5000280509090600FFF8A88888888888A8F846
:102E6000050A0A0600FE205050505088A8A8887015
:102E700003030306000340A0400000000000000020
:102E800000000000007FFFE00000000000000000E4
:102E9000000000007000E0000000000000000000E2
:102EA00000000061F8600000000000000000000069
:102EB000000041F8200000000000000000000000B9
:102EC0000040F020000000000000000000000000B2
:102ED00040602000000000000000000000000058DA
:102EE00001A07F80003FC0000000004104005C633F
:102EF000A0FBC00079E0000000002082005EF7A087
:102F0000F3C00076E0000000002082005EF7A0EB36
:102F1000C0007EE0000000004104005C63A07B80F4
:102F2000003DC0000000008208005801A07B800026
:102F30003BC000000001041000406020FBC000778F
:102F4000E00000000104100040F020FBC00070E031
:102F50000000000082080041F820FFC0007FE00070
:102F600000000041040061F8603F00001F80000085
:102F700000000000007000E01E00000F00000000D4
:102F800001FFFF807FFFE00C000006000000000151
:102F9000FFFF8000000000000000000000000000B3
:102FA00000007FFFE00000000000000000000000C3
:102FB000007000E0000000000000000000000000C1
:102FC000630C6000000000000000000000000047EB
:102FD0000E200000000000000000000000004F0F65
:102FE000200000000000000000000000005F0FA0B3
:102FF0000000000000000000000000005E07A07F4D
:1030000080003FC000000000410400406020FBC081
:103010000079E00000000020820040F020F3C000B2
:1030200076E00000000020820040F020EBC0007E2F
:10303000E0000000004104004060207B80003DC0B3
:10304000000000008208005E07A07B80003BC000FB
:103050000000010410005F0FA0FBC00077E000003B
:1030600000010410004F0F20FBC00070E0000000C2
:1030700000820800470E20FFC0007FE00000000033
:10308000410400630C603F00001F8000000000004E
:1030900000007000E01E00000F0000000001FFFFB4
:1030A000807FFFE00C0000060000000001FFFF80B1
:1030B000000000207A3A200020793A200020783A57
:1030C000200000000A0B02090C0D0E080703040182
:1030D00000000000000000000000000000000000F0
:1030E00000000000000000000000000000001211BD
:1030F00010000000000000000000000000000000C0
:1031000000000000000000000000000000000000BF
:10311000000000000000000001021020200808103C
:103120002040102040800201020108040201010237
:103130000408102040808040201008040201800410
:10314000020180402010080402010804020101026B
:10315000040810204080010204081020408010085C
:1031600004088010204004408010204004800505A1
:103170000505070508080808020202020A0A0808ED
:10318000040404040101010101010101030303031B
:1031900003030303040707070C0C0C0C0C0C0C0CAA
:1031A0000202020206060606060606060B0B0B0BBB
:1031B0000B0B0B0B07070A0A0A0A0A0A0505050486
:1031C00004040808000020002300260029002C0029
:1031D0002F00320000010000030106010901000078
:1031E0002200250028002B002E00310034000201AF
:1031F0000000050108010B01000021002400270048
:103200002A002D00300033000101000004010701F5
:103210000A014E414E494E495459494E46CDCCCCF7
:103220003D0AD7233C17B7D13877CC2B329595E69A
:10323000241FB14F0A000020410000C84200401C7A
:103240004620BCBE4CCA1B0E5AAEC59D7400AA5582
:1032500057FEAE5511241FBECFEFD1E2DEBFCDBF6A
:1032600000E00CBF14E0A0E0B2E0ECE1FEE202E01E
:103270000BBF02C007900D92A03CB107D9F726E121
:10328000A0ECB4E001C01D92AF3EB207E1F712E33B
:10329000C2E5D2E300E006C022970109FE010BBFA0
:1032A0000F94C810CE34D10780E00807A9F70F9417
:1032B000AC0B0D94FD160C9400001F920F920FB6EC
:1032C0000F9211240BB60F922F933F934F935F935E
:1032D0006F938F939F93EF93FF936091C60020911C
:1032E000410530914205C90101968F779927409198
:1032F0004305509144058417950741F0F901EF53B8
:10330000FB4F60839093420580934105FF91EF91BD
:103310009F918F916F915F914F913F912F910F905E
:103320000BBE0F900FBE0F901F9018959A01AB0126
:10333000211581EE38074105510549F182E080935E
:10334000C00060E079E08DE390E00F948710215099
:10335000310941095109CA01B90122E030E040E0D8
:1033600050E00F9487103093C5002093C4008091E3
:10337000C10080618093C1008091C100886080930A
:10338000C1008091C10080688093C10008951092AF
:10339000C00020E130E0E7CF2091430530914405A3
:1033A00080914105909142058217930771F0F901D0
:1033B000EF53FB4F80812F5F3F4F2F7733273093A1
:1033C00044052093430590E008958FEF9FEF089503
:1033D0008091430590914405909342058093410567
:1033E00008954F925F926F927F928F929F92AF92C9
:1033F000BF92CF92DF92EF92FF920F931F93CF93E2
:10340000DF93CDB7DEB7A0970FB6F894DEBF0FBE3F
:10341000CDBF5C014115510561057105E9F420E05E
:1034200030E040E350E060E070E0A0960FB6F89422
:10343000DEBF0FBECDBFDF91CF911F910F91FF90E7
:10344000EF90DF90CF90BF90AF909F908F907F9044
:103450006F905F904F905BC08E010F5F1F4FC12C2C
:10346000D12C76014801422E512C612C712C8FEF0A
:10347000C81AD80AE80AF80ACB01BA01A3019201D6
:103480000F946510CA01F80161938F01A901BC0175
:10349000411551056105710551F7F1E0CF1AD108C9
:1034A000E108F108F401EC0DFD1D80818A3010F473
:1034B00040E301C047E3480F552747FD5095652F6E
:1034C000752F20E030E0C50122D081E0C81AD10874
:1034D000E108F108EFEFCE16DE06EE06FE0611F764
:1034E000A0960FB6F894DEBF0FBECDBFDF91CF918F
:1034F0001F910F91FF90EF90DF90CF90BF90AF9012
:103500009F908F907F906F905F904F9008952115BE
:10351000310539F48091C00085FFFCCF4093C6008F
:1035200008952A30310509F41CC05BCFCF93DF9397
:10353000EC0120E030E04DE050E060E070E0E7DFDB
:1035400020E030E04AE050E060E070E0CE01DF9142
:10355000CF91DDCF9A01AB01662757FD6095762F9D
:10356000D6CFCF92DF92EF92FF92CF93DF93EC0111
:103570006A017B0177FF0FC020E030E04DE250E0B0
:1035800060E070E0C4DFF094E094D094C094C11C7B
:10359000D11CE11CF11C2AE0B701A601CE01DF918C
:1035A000CF91FF90EF90DF90CF901BCF2115310589
:1035B00039F48091C00085FFFCCF4093C600089588
:1035C00010CF9A01462F50E060E070E0EFCFCF932C
:1035D000DF93EC019A01AB0160E070E0E7DFCE0120
:1035E000DF91CF91A3CF8F929F92AF92BF92CF9254
:1035F000DF92EF92FF921F93CF93DF93EC016A016A
:103600007B01122F20E030E0A901C701B6010F9421
:10361000940C87FF0CC020E030E04DE250E060E009
:1036200070E0CE0174DFF7FAF094F7F8F094B12C63
:1036300060E070E080E09FE3B11641F020E030E010
:1036400040E251E40F949B0CB394F6CF9B01AC0184
:10365000C701B6010F94BB0B6B017C010F94080DE1
:103660004B015C010F94340D9B01AC01C701B60105
:103670000F94BA0B6B017C012AE0B501A401CE01C5
:10368000B0DE112341F020E030E04EE250E060E097
:1036900070E0CE013CDF112319F120E030E040E280
:1036A00051E4C701B6010F94690F6B017C010F94BF
:1036B000030D4B01AA2497FCA094BA2CB501A401D8
:1036C000CE014FDFC501B4010F94360D9B01AC0153
:1036D000C701B6010F94BA0B6B017C011150DBCF0F
:1036E000DF91CF911F91FF90EF90DF90CF90BF902F
:1036F000AF909F908F90089576CFFC016591759162
:103700008591949108950F940F09609372057093B9
:1037100073058093740590937505089580913A021E
:1037200090913B02A0913C02B0913D0280935707DB
:1037300090935807A0935907B0935A078091380285
:103740009091390290939D0580939C0584E690E0CA
:103750009093390280933802D6DF81E00C94AEA2B8
:1037600080E00E94AEA28091570790915807A091E7
:103770005907B0915A0780933A0290933B02A09365
:103780003C02B0933D0280919C0590919D059093E1
:10379000390280933802B7CFFC012491222341F0F3
:1037A0003091C00035FFFCCF2093C6000196F4CFC6
:1037B0004AE050E080EC94E0CDCEFC01249122233D
:1037C00041F03091C00035FFFCCF2093C600019638
:1037D000F4CF22E030E080EC94E08ECFFC01249125
:1037E000222341F03091C00035FFFCCF2093C6006A
:1037F0000196F4CF22E030E080EC94E07DCFFC0134
:103800002491222341F03091C00035FFFCCF20935A
:10381000C6000196F4CF2AE030E080EC94E0C6CEFA
:10382000CF93DF93FC0120812B3309F467C02091F3
:10383000220730912307243031050CF05FC020911E
:1038400024073091250740E6429FE001439FD00DB9
:103850001124CE55DA4FBC01CE010F94FE13ECEECD
:10386000FBE08491882341F09091C00095FFFCCF4C
:103870008093C6003196F5CFE0EAFBE0849188237F
:1038800071F09091C00095FFFCCF8093C6003196F7
:10389000F5CF9091C00095FFFCCF8093C600899131
:1038A0008111F7CFEEE9FBE08491882341F09091FC
:1038B000C00095FFFCCF8093C6003196F5CF809174
:1038C000C00085FFFCCF8AE08093C600809124076A
:1038D00090912507019664E070E00F945210909348
:1038E0002507809324078091220790912307019652
:1038F000909323078093220781E001C080E0DF914D
:10390000CF910895DF92EF92FF920F931F93CF9381
:10391000DF93CDB7DEB76E970FB6F894DEBF0FBE5C
:10392000CDBF609176057091770561157105A1F0A5
:103930004DE150E08E010F5F1F4FC8010F948D13B2
:103940001E8EF8017F01E01AF10AD190DD2031F0DE
:103950008AE0D812F7CF02C080E01DC0F801EE0D5A
:10396000FF1D1082C8015CDF8823A1F0DD2071F00B
:103970008FEFE81AF80A80917605909177058E0D01
:103980009F1D909377058093760504C0109277056C
:103990001092760581E06E960FB6F894DEBF0FBEEA
:1039A000CDBFDF91CF911F910F91FF90EF90DF90EE
:1039B00008959093770580937605A4CF6F98779AB2
:1039C00008959D9AA5980895F9DFFBDF40E950ED31
:1039D00063E070E080EC94E0A9DCE8E9FBE084912E
:1039E000882341F09091C00095FFFCCF8093C600E2
:1039F0003196F5CF8091C00085FFFCCF8AE080939F
:103A0000C600ECEEFBE08491882341F09091C00069
:103A100095FFFCCF8093C6003196F5CF84B780FF29
:103A200014C0E0E9FBE09491992341F02091C0009B
:103A300025FFFCCF9093C6003196F5CF9091C00042
:103A400095FFFCCF9AE09093C60081FF14C0E0E898
:103A5000FBE09491992341F02091C00025FFFCCF19
:103A60009093C6003196F5CF9091C00095FFFCCFA2
:103A70009AE09093C60082FF14C0EFE6FBE09491B9
:103A8000992341F02091C00025FFFCCF9093C60000
:103A90003196F5CF9091C00095FFFCCF9AE09093BE
:103AA000C60083FF14C0EFE5FBE09491992341F039
:103AB0002091C00025FFFCCF9093C6003196F5CF32
:103AC0009091C00095FFFCCF9AE09093C60085FFCF
:103AD00014C0EFE4FBE08491882341F09091C00092
:103AE00095FFFCCF8093C6003196F5CF8091C00042
:103AF00085FFFCCF8AE08093C60014BEE8E4FBE0BB
:103B00008491882341F09091C00095FFFCCF809371
:103B1000C6003196F5CFEFE3FBE08491882341F0B6
:103B20009091C00095FFFCCF8093C6003196F5CFF1
:103B30008091C00085FFFCCF8AE08093C600ECEE48
:103B4000FBE08491882341F09091C00095FFFCCF69
:103B50008093C6003196F5CFEFE2FBE08491882395
:103B600041F09091C00095FFFCCF8093C600319644
:103B7000F5CFEAE2FBE08491882341F09091C00008
:103B800095FFFCCF8093C6003196F5CFEEE1FBE0C8
:103B90008491882341F09091C00095FFFCCF8093E1
:103BA000C6003196F5CFEFEFFAE08491882341F01B
:103BB0009091C00095FFFCCF8093C6003196F5CF61
:103BC0008091C00085FFFCCF8AE08093C600E4EFBF
:103BD000FAE08491882341F09091C00095FFFCCFDA
:103BE0008093C6003196F5CFE8EEFAE08491882301
:103BF00041F09091C00095FFFCCF8093C6003196B4
:103C0000F5CF8091C00085FFFCCF8AE08093C6008D
:103C1000ECEEFBE08491882341F09091C00095FF89
:103C2000FCCF8093C6003196F5CFE9EDFAE08491A0
:103C3000882341F09091C00095FFFCCF8093C6008F
:103C40003196F5CF0E94A3604AE050E0BC0180ECC1
:103C500094E080DCE2ECFAE08491882341F09091DA
:103C6000C00095FFFCCF8093C6003196F5CF4AE0A7
:103C700050E060ED75E080EC94E06CDC8091C00079
:103C800085FFFCCF8AE08093C60010925005109209
:103C9000510510925205109253050E946A7A0E94B3
:103CA0003BD70E94B5B50E94A3800F94FE020E94EC
:103CB000D3AD6C9A08950F931F93CF93DF93009128
:103CC00078051091790565E470E0C8010F94EA1356
:103CD000EC01C8010196209761F0188260E070E065
:103CE0000F94CC1025E42883DF91CF911F910F9181
:103CF000089560E070E0DF91CF911F910F910D94D6
:103D0000CC1080917805909179054AE050E060E010
:103D100070E001960D9434128091780590917905A8
:103D20004AE050E060E070E001960F943412CB015D
:103D30000895682F772767FD7095809128079091E7
:103D400029070F94EA13909379058093780521E071
:103D5000892B09F420E0822F08950F931F93CF93AE
:103D6000DF9300D000D0CDB7DEB726E0E2EFF2E07F
:103D7000DE01119601900D922A95E1F7FC01EE0FFC
:103D8000FF1F21E030E02C0F3D1FE20FF31F608189
:103D90007181161617061CF1ECEEFBE0249122232C
:103DA00041F03091C00035FFFCCF2093C600319622
:103DB000F5CFEEECF8E02491222341F03091C000E1
:103DC00035FFFCCF2093C6003196F5CF2091C0007F
:103DD00025FFFCCF2AE02093C6006AE070E08C014A
:103DE000000F111F000F111F065F1B4F882777FD63
:103DF0008095982F0F94360D9B01AC01F8016081DE
:103E00007181828193810F949B0C60933A0270932D
:103E10003B0280933C0290933D0226960FB6F894A5
:103E2000DEBF0FBECDBFDF91CF911F910F910895DF
:103E30008F929F92AF92BF92CF92DF92EF92FF92BA
:103E40000F931F9320E030E040E752E460913A0284
:103E500070913B0280913C0290913D020F949B0C2B
:103E60004B015C01E0904F07F09050070091510723
:103E70001091520720914B0730914C0740914D070C
:103E800050914E076091470770914807809149070C
:103E900090914A07E0918205EF93E3E5CE2EE7E0AB
:103EA000DE2E0E943A820F901F910F91FF90EF90AB
:103EB000DF90CF90BF90AF909F908F9008954F92DA
:103EC0005F926F927F928F929F92AF92BF92EF928A
:103ED000FF920F931F93CF93DF93CDB7DEB7289751
:103EE0000FB6F894DEBF0FBECDBF4B015C018091D1
:103EF0003A0290913B02A0913C02B0913D0289832D
:103F00009A83AB83BC83412C512CF1E66F2EF4E4F1
:103F10007F2E40923A0250923B0260923C02709295
:103F20003D02E0924F07F092500700935107109323
:103F300052072D833E834F8358877ADF0E948AABD6
:103F40006091120270911302882777FD8095982F57
:103F50000F94360D60933A0270933B0280933C02BB
:103F600090933D028092470790924807A09249079C
:103F7000B0924A072D813E814F81588520934B078F
:103F800030934C0740934D0750934E0751DF0E94EA
:103F90008AAB89819A81AB81BC8180933A029093EC
:103FA0003B02A0933C02B0933D0228960FB6F894D2
:103FB000DEBF0FBECDBFDF91CF911F910F91FF905C
:103FC000EF90BF90AF909F908F907F906F905F9099
:103FD0004F9008954F925F926F927F928F929F922F
:103FE000AF92BF92CF92DF92EF92FF920F931F9307
:103FF0002B013C0120E030E040E752E460913A02BE
:1040000070913B0280913C0290913D020F949B0C79
:104010004B015C0120914B0730914C0740914D07BB
:1040200050914E076091470770914807809149076A
:1040300090914A07E0918205EF93A3E5CA2EA7E08D
:10404000DA2E830172010E943A820F901F910F9124
:10405000FF90EF90DF90CF90BF90AF909F908F90A8
:104060007F906F905F904F9008958F929F92AF9244
:10407000BF92CF92DF92EF92FF920F931F9320E0B7
:1040800030E040E752E40F949B0C4B015C01E09060
:104090003F07F0904007009141071091420720919F
:1040A0003B0730913C0740913D0750913E0760919E
:1040B0003707709138078091390790913A07E0915E
:1040C0008205EF93B3E4CB2EB7E0DB2E0E943A8259
:1040D0000F901F910F91FF90EF90DF90CF90BF90C6
:1040E000AF909F908F90089560913A0270913B023B
:1040F00080913C0290913D02B8CFCF92DF92EF9237
:10410000FF920F931F93E0904F07F090500700919C
:1041100051071091520720914B0730914C07409165
:104120004D0750914E076091470770914807809165
:10413000490790914A07E3E5CE2EE7E0DE2E0E9484
:10414000438F1F910F91FF90EF90DF90CF900895D4
:104150004F925F926F927F928F929F92AF92BF9297
:10416000CF92DF92EF92FF920F931F93CF93DF9343
:104170005C01FC01E355F44FF490EC01CC0FDD1F22
:10418000CC0FDD1F8E01095B184FF80110821182E0
:1041900012821382B2DFCE018454944FAEDA2B0127
:1041A0003C016F2D772767FD7095872F972F0F9410
:1041B000360D6B017C019E01295C384F490120E0DE
:1041C00030E040EC5FE3C301B2010F94690FA70137
:1041D00096010F94690FF401608371838283938346
:1041E000FE01E65FFB4F80819181A281B3818093C4
:1041F0003A0290933B02A0933C02B0933D0274DFDD
:104200000E948AABF801108211821282138275DF3C
:1042100080E00E94AEA29E012055344F3901C901B1
:104220006CDA9058A70196010F94690FF40160832E
:1042300071838283938358DF0E948AAB81E00E945E
:10424000AEA2C5018ADDC30158DA9B01AC010F940F
:10425000BB0BA70196010F94690FF4016083718372
:104260008283938341DF0E948AABCE018853944FAF
:1042700044DA9E0121573A4F7901F90120813181B9
:10428000428153810F94BB0BF80160837183828359
:104290009383CE018052944F30DA9E012D573A4FCE
:1042A0006901F70120813181428153810F94BB0B59
:1042B000F6016083718382839383CE018C52944F85
:1042C0001CDAC85EDD4FF7012081318142815381C4
:1042D0000F94BB0B688379838A839B830EDFF8017D
:1042E00080819181A281B381F40180839183A28333
:1042F000B38310923A0210923B0210923C02109249
:104300003D020E9419A2F501EC5CF84F81E0808328
:10431000DF91CF911F910F91FF90EF90DF90CF90A1
:10432000BF90AF909F908F907F906F905F904F90D5
:1043300008958F929F92AF92BF92CF92DF92EF92A9
:10434000FF920F931F938CE492E00F94A40080E0FF
:1043500090E0A1E6B4E480933A0290933B02A093EC
:104360003C02B0933D0260E070E088E493EC32DE02
:104370000E948AAB82E090E00E94EFAB4B015C01AF
:1043800020914B0730914C0740914D0750914E07BB
:1043900060914707709148078091490790914A07BB
:1043A000A3E5CA2EA7E0DA2E850174010E94438F8F
:1043B00088EB9BE0A2D99B01AC01C501B4010F942D
:1043C000BB0B4B015C0106DE0E948AAB0E9419A266
:1043D00082E090E0C2DC88EB9BE08FD99B01AC01CE
:1043E0000F94BB0B9B01AC01C501B4010F94BA0B38
:1043F000F1DD0E948AAB0E9419A282E090E00E9447
:10440000EFAB60934F0770935007809351079093E1
:1044100052071F910F91FF90EF90DF90CF90BF90C8
:10442000AF909F908F9069CE80E1E7E3F7E0A7E43B
:10443000B7E001900D928A95E1F7089580E1E7E4F5
:10444000F7E0A7E3B7E001900D928A95E1F70895B0
:10445000CF92DF92EF92FF920F931F93CF93DF9350
:10446000B6E0EB2EB4E0FB2E07E317E0C7E4D7E09D
:104470008EE9C82E85E0D82EF70181917F0159DCA5
:104480008823C9F018DCF6012081211104C0209195
:104490007E05222329F0288139814A815B8103C06E
:1044A00020E030E0A9010F94BB0BF8016083718319
:1044B0008283938309C088819981AA81BB81F80195
:1044C00080839183A283B3830C5F1F4F2496FFEFF9
:1044D000CF1ADF0A8AE0E81684E0F80669F686E477
:1044E00028DC882391F0E7DB6B017C0120E030E0E1
:1044F000A9010F94970E181644F4C0923A02D09274
:104500003B02E0923C02F0923D02DF91CF911F917D
:104510000F91FF90EF90DF90CF900895ECEEFBE0CD
:104520008491882341F09091C00095FFFCCF809347
:10453000C6003196F5CFEBE3F9E08491882341F092
:104540009091C00095FFFCCF8093C6003196F5CFC7
:10455000E0912A07F0912B078191882339F09091FF
:10456000C00095FFFCCF8093C600F6CFE8E3F9E0EA
:104570008491882341F09091C00095FFFCCF8093F7
:10458000C6003196F5CF0895CF93DF930E948AAB92
:104590008CE492E00F94A400C1D850DF10923A024C
:1045A00010923B0210923C0210923D0288E5C1DB62
:1045B000D82F89E5BEDBC82F8AE5BBDBD11105C04A
:1045C000C11107C091E0982705C0CC2311F0982FA6
:1045D00001C090E090930C02911102C0882319F061
:1045E00082E090E0B5DD80910C02811102C0DD23F4
:1045F00019F080E090E0ACDD80910C02811102C0E6
:10460000CC2319F081E090E0A3DD77DD80E00E940B
:10461000AEA28091570790915807A0915907B09189
:104620005A0780933A0290933B02A0933C02B093C6
:104630003D0280919C0590919D0590933902809355
:10464000380261D8DF91CF910C9419A2E0E3F9E030
:104650002491222379F03091C00035FFFCCF2093C4
:10466000C6003196F5CF3091C00035FFFCCF2093C6
:10467000C6000196FC0124912111F5CFE8E1F9E093
:104680008491882341F09091C00095FFFCCF8093E6
:10469000C6003196F5CF8091C00085FFFCCF8AE03F
:1046A0008093C60008950E948AAB38D880E090E0DD
:1046B000A1E6B4E480933A0290933B02A0933C02BB
:1046C000B0933D0236DEE0E0F7E08491882341F0CC
:1046D0009091C00095FFFCCF8093C6003196F5CF36
:1046E00027E137EB41ED58E36091470770914807A8
:1046F0008091490790914A070F94BB0BAB01BC0115
:1047000022E030E080EC94E00E947C1BEBEFF6E0CE
:104710008491882341F09091C00095FFFCCF809355
:10472000C6003196F5CF27E137EB41ED58E36091B4
:104730004B0770914C0780914D0790914E070F9455
:10474000BB0BAB01BC0122E030E080EC94E00E94A6
:104750007C1BE6EFF6E08491882341F09091C00045
:1047600095FFFCCF8093C6003196F5CF27E137EB5C
:1047700041ED58E360914F077091500780915107C8
:10478000909152070F94BB0BAB01BC0122E030E0CB
:1047900080EC94E00E947C1B8091C00085FFFCCFE0
:1047A0008AE08093C6000C94B01BBF92CF92DF9238
:1047B000EF92FF920F931F93CF93DF9300D01F923E
:1047C000CDB7DEB785E4B5DA811102C00E948AABAD
:1047D00096E0C92E94E0D92E27E4E22E27E0F22EAF
:1047E00000E010E0B12CF60181916F01A2DA88237C
:1047F000A1F061DAF7016083718382839383698317
:104800007A838B839C830330110529F4CE010196B2
:104810000E94379002C0BB24B3940F5F1F4FF4E097
:10482000EF0EF11C04301105F1F6B11066DC0F90AB
:104830000F900F900F90DF91CF911F910F91FF90EC
:10484000EF90DF90CF90BF900895EDEAF6E084916D
:10485000882341F09091C00095FFFCCF8093C60063
:104860003196F5CF8091C00085FFFCCF8AE0809320
:10487000C6008BE597E00E94AA67EFE9F6E0849115
:10488000882341F09091C00095FFFCCF8093C60033
:104890003196F5CF8091C00085FFFCCF8AE08093F0
:1048A000C60008950F931F93CF93DF93CDB7DEB764
:1048B0006E970FB6F894DEBF0FBECDBF0F940F09F1
:1048C000609366057093670580936805909369050A
:1048D00000916A0510916B0520916C0530916D0572
:1048E000601B710B820B930B28EE33E040E050E02D
:1048F0000F946510CA01B9012CE330E040E050E0AC
:104900000F9465107F936F933F932F9380E996E008
:104910009F938F938E010F5F1F4F1F930F930F94E1
:1049200022140FB6F894DEBF0FBECDBFECEEFBE055
:104930008491882341F09091C00095FFFCCF809333
:10494000C6003196F5CFF8018191882339F0909116
:10495000C00095FFFCCF8093C600F6CF8091C000C9
:1049600085FFFCCF8AE08093C60060E0C8010E940A
:1049700032D48091F611882309F11092F61100913A
:10498000820510E0000F111F0A5B1B4EF8016081C9
:104990007181882777FD8095982F0F94360D20918F
:1049A00044023091450240914602509147020F94D3
:1049B000970E18161CF4F801118210826E960FB62D
:1049C000F894DEBF0FBECDBFDF91CF911F910F9145
:1049D00008951F93CF93DF9380915D0781110E940B
:1049E0008AABC0912807D091290761E270E0CE011F
:1049F0000F94EA13009711F0EC01219680E599D904
:104A0000882341F011E080917805909179058C1709
:104A10009D0708F010E080915E078823B9F121E03E
:104A2000212741E0BE018BE597E00E947D6C83E584
:104A300080D9882339F080917805909179058C1779
:104A40009D0788F08BE597E00E94CB6811111EC08E
:104A50000F940F0960936A0570936B0580936C0542
:104A600090936D0513C058D9AC01662757FD60952A
:104A7000762F4093DE095093DF096093E00970932D
:104A8000E10989E299E00E943E5BDCCFDF91CF91A2
:104A90001F9108950F931F93CF93DF9383E549D917
:104AA0008823A1F139D98C0180E543D9882321F0ED
:104AB0000F3F110541F138F1CDE0D0E0E6ECF3E035
:104AC000819191918C179D0709F184E0E630F807F8
:104AD000B9F7C830D10529F41093810500938005FA
:104AE00002C0D7FD13C061E08C2F0F94E60A602F3F
:104AF0008C2F0F941F0BB8018C2FDF91CF911F913A
:104B00000F910D94D00908D9EC01D8CFDF91CF9146
:104B10001F910F9108952F923F924F925F926F9243
:104B20007F928F929F92AF92BF92CF92DF92EF923D
:104B3000FF920F931F93CF93DF93CDB7DEB7CC5E79
:104B4000D1090FB6F894DEBF0FBECDBF86E5F1D810
:104B50008823F1F0E1D8C353DF4F8883CD5CD04088
:104B6000853070F0EBE6F6E08491882309F4B2C654
:104B70009091C00095FFFCCF8093C6003196F4CF92
:104B8000C353DF4F2881CD5CD0402223A1F006C063
:104B900031E0C353DF4F3883CD5CD040EBE4F6E027
:104BA0008491882341F09091C00095FFFCCF8093C1
:104BB000C6003196F5CF80E5BCD88823B9F0ACD8D3
:104BC000C551DF4F8883CB5ED04084508F32A0F038
:104BD000E7E2F6E08491882309F47CC69091C00056
:104BE00095FFFCCF8093C6003196F4CF4AE0C551C3
:104BF000DF4F4883CB5ED04080E090E00E94EFAB77
:104C0000CA52DF4F6883C65DD040C652DF4F7883FB
:104C1000CA5DD040C152DF4F8883CF5DD040CF51B5
:104C2000DF4F9883C15ED04081E090E00E94EFABFF
:104C3000362E272ECD51DF4F8883C35ED040C95119
:104C4000DF4F9883C75ED04082E090E00E94EFABD8
:104C50004B015C0183E090E00E94EFABC753DF4F54
:104C6000688379838A839B83C95CD04085E461D85B
:104C7000C451DF4F8883CC5ED04088E55AD8882362
:104C800009F441C018D820E030E04CE852E40F9419
:104C9000BB0BC253DF4F6883CE5CD040C153DF4FA4
:104CA0007883CF5CD040C053DF4F8883C05DD04055
:104CB000CF52DF4F9883C15DD04020E030E0A901A2
:104CC0000F94940C87FD1CC020E030E84DEB53E4BA
:104CD000C253DF4F6881CE5CD040C153DF4F788133
:104CE000CF5CD040C053DF4F8881C05DD040CF52F1
:104CF000DF4F9881C15DD0400F94970E18165CF578
:104D000085E296E06FC0CA52DF4F5881C65DD04041
:104D1000C253DF4F5883CE5CD040C652DF4F8881EC
:104D2000CA5DD040C153DF4F8883CF5CD040C152B1
:104D3000DF4F9881CF5DD040C053DF4F9883C05D77
:104D4000D040CF51DF4FA881C15ED040CF52DF4F5E
:104D5000A883C15DD04089E50E94991E882309F48B
:104D600043C00E945B1E20E030E04CE052E40F9410
:104D7000BB0BCE52DF4F6883C25DD040CD52DF4FB8
:104D80007883C35DD040CC52DF4F8883C45DD04070
:104D9000CB52DF4F9883C55DD04020E030E0A901C1
:104DA0000F94940C87FD1CC020E030E04AEA53E4E5
:104DB000CE52DF4F6881C25DD040CD52DF4F788147
:104DC000C35DD040CC52DF4F8881C45DD040CB5210
:104DD000DF4F9881C55DD0400F94970E181614F5DB
:104DE00083E296E033DC76C5CE52DF4F3882C25D77
:104DF000D040CD52DF4F2882C35DD040CD51DF4F30
:104E0000B881C35ED040CC52DF4FB883C45DD04080
:104E1000C951DF4FE881C75ED040CB52DF4FE883F6
:104E2000C55DD0408CE40E94991E8823C9F00E9481
:104E30008C1EC252DF4F8883CE5DD0408130B1F0EE
:104E40008031D0F0E0EFF5E08491882309F442C589
:104E50009091C00095FFFCCF8093C6003196F4CFAF
:104E6000C252DF4F1882CE5DD04006C0F2E0C2527F
:104E7000DF4FF883CE5DD04020E030E040EA51E4DF
:104E8000C501B4010F94BB0B2B013C010E948AABFE
:104E90008CE492E00F94A40080918205C753DF4F09
:104EA000288139814A815B81C95CD04029833A835A
:104EB0004B835C838F93812C912CA0E7AA2EA1E4D5
:104EC000BA2EAE014F5F5F4F6A0183017201232D3D
:104ED000322DCD51DF4F4881C35ED040C951DF4FE5
:104EE0005881C75ED040CA52DF4F6881C65DD0404E
:104EF000C652DF4F7881CA5DD040C152DF4F8881F2
:104F0000CF5DD040CF51DF4F9881C15ED0400E942D
:104F10003A820E948AAB0F90C353DF4F5881CD5C19
:104F2000D040533008F009C180918205C753DF4F4C
:104F3000288139814A815B81C95CD04029833A83C9
:104F40004B835C838F93812C912C7AEAA72E72E499
:104F5000B72EAE014F5F5F4F6A0183017201CE52DF
:104F6000DF4F2881C25DD040CD52DF4F3881C35D15
:104F7000D040CC52DF4F4881C45DD040CB52DF4F90
:104F80005881C55DD040C253DF4F6881CE5CD040B0
:104F9000C153DF4F7881CF5CD040C053DF4F888151
:104FA000C05DD040CF52DF4F9881C15DD0400E949C
:104FB0003A820E948AAB80E090E00E94EFAB60935F
:104FC0004707709348078093490790934A0781E009
:104FD00090E00E94EFAB60934B0770934C07809377
:104FE0004D0790934E0782E090E00E94EFAB6093F4
:104FF0004F0770935007809351079093520783E0B7
:1050000090E00E94EFAB4B015C01609353077093FB
:10501000540780935507909356070E948E1B89D999
:1050200082E090E00E94EFAB60934F0770935007CF
:10503000809351079093520782E090E00E94EFAB7B
:1050400020E030E040EA51E40F94BB0BC652DF4F42
:10505000688379838A839B83CA5DD040809182056F
:1050600089829A82AB82BC828F93812C912CEAEA4E
:10507000AE2EE2E4BE2EC652DF4FE880F9800A81F0
:105080001B81CA5DD040CE52DF4F2881C25DD04027
:10509000CD52DF4F3881C35DD040CC52DF4F4881C5
:1050A000C45DD040CB52DF4F5881C55DD040C25364
:1050B000DF4F6881CE5CD040C153DF4F7881CF5C39
:1050C000D040C053DF4F8881C05DD040CF52DF4F0A
:1050D0009881C15DD0400E943A820E948AAB82E0F2
:1050E00090E00E94EFABC951DF4F688379838A83D8
:1050F0009B83C75ED04060934F07709350078093A7
:10510000510790935207C152DF4FD982C882CF5DB9
:10511000D0400F900F9022242394312CC252DF4FA5
:10512000F881CE5DD040EF2FF0E03197CF51DF4FC7
:10513000F983E883C15ED04071C0E6EDF5E084916B
:10514000882309F4F1CE9091C00095FFFCCF8093A5
:10515000C6003196F4CFC353DF4F9881CD5CD04069
:10516000911155C3809182058F93812C912C40E73A
:10517000A42E41E4B42E53E5C52E57E0D52EC652D9
:10518000DF4FE880F9800A811B81CA5DD040CE5292
:10519000DF4F2881C25DD040CD52DF4F3881C35DE3
:1051A000D040CC52DF4F4881C45DD040CB52DF4F5E
:1051B0005881C55DD040C253DF4F6881CE5CD0407E
:1051C000C153DF4F7881CF5CD040C053DF4F88811F
:1051D000C05DD040CF52DF4F9881C15DD0400E946A
:1051E0003A820E948AAB0F90C451DF4FA881CC5EF7
:1051F000D040AA2331F068EE73E080E090E00F9495
:105200003E09BFEF2B1A3B0A8FEF820DC551DF4FCE
:10521000E881CB5ED0408E1708F001C3CC24CA943D
:10522000C20CC652DF4FE880F9800A811B81CA5D3B
:10523000D040CE52DF4F2881C25DD040CD52DF4FEB
:105240003881C35DD040CC52DF4F4881C45DD0402F
:10525000CB52DF4F5881C55DD040C253DF4F6881CC
:10526000CE5CD040C153DF4F7881CF5CD040C0537B
:10527000DF4F8881C05DD040CF52DF4F9881C15D44
:10528000D0400E945F1FC252DF4F2881CE5DD040C8
:10529000222309F4B5C10F940F09D62E972E5C0175
:1052A0002EE530E040E050E00F9465100F94340D8F
:1052B0002B013C016D2D792DC50128E631E040E040
:1052C00050E00F9465100F94340D2BED3FE049E44E
:1052D00050E40F94690F20E030E044E353E40F946E
:1052E0009B0CCA52DF4F688379838A839B83C65D98
:1052F000D040D0FE0DC080E090E0A0E8BFE3CD51EB
:10530000DF4F88839983AA83BB83C35ED0400CC0E0
:1053100020E030E040E85FEBCD51DF4F2883398358
:105320004A835B83C35ED040D12C8D2D90E0CF515A
:10533000DF4FE881F981C15ED0408E179F070CF0E6
:105340002DC10F940F094B015C0124E130E040E0D6
:1053500050E00F9465100F94340D9B01AC01CD51BA
:10536000DF4F688179818A819B81C35ED0400F9431
:10537000690F2BED3FE049E450E40F94690F20E002
:1053800030E044E353E40F949B0C9B01AC01CA5200
:10539000DF4F688179818A819B81C65DD0400F94FF
:1053A000BB0BCA52DF4F688379838A839B83C65DB8
:1053B000D040C501B4012AE030E040E050E00F9455
:1053C000651065507109810991090F94340D9B0195
:1053D000AC01C301B2010F94BB0B2B013C0120E0D7
:1053E00030E0A9010F94940C87FF04C077FA709401
:1053F00077F87094CA52DF4F688179818A819B81E6
:10540000C65DD0400F94980CA30192010F94690FD0
:105410009B01AC01C253DF4F6881CE5CD040C153C9
:10542000DF4F7881CF5CD040C053DF4F8881C05DB3
:10543000D040CF52DF4F9881C15DD0400F94BB0B5D
:105440004B015C0120E030E0A9010F94940C87FD32
:1054500012C020E030E84DEB53E4C501B4010F94D5
:10546000970E18165CF4812C60E8962E6DEBA62E34
:1054700063E4B62E03C0812C912C5401CA52DF4F35
:10548000688179818A819B81C65DD0400F94CC0F61
:10549000A30192010F94690F9B01AC01CE52DF4F23
:1054A0006881C25DD040CD52DF4F7881C35DD0406E
:1054B000CC52DF4F8881C45DD040CB52DF4F988102
:1054C000C55DD0400F94BB0BC753DF4F6883798312
:1054D0008A839B83C95CD04020E030E0A9010F940F
:1054E000940C87FD1DC020E030E04AEA53E4C75326
:1054F000DF4F688179818A819B81C95CD0400F949C
:10550000970E1816ACF480E090E0AAEAB3E4C75313
:10551000DF4F88839983AA83BB83C95CD04008C0CE
:10552000C753DF4F188219821A821B82C95CD04090
:10553000C353DF4F9881CD5CD0409430C9F4B5019E
:10554000A40182ED95E00E94EE1BC753DF4F488116
:1055500059816A817B81C95CD0408EEC95E00E94C4
:10556000EE1B8091C00085FFFCCFAAE0A093C6008F
:10557000C951DF4FE880F9800A811B81C75ED040A6
:10558000C753DF4F288139814A815B81C95CD04094
:10559000C501B4010E945F1FD394C7CEC652DF4F2E
:1055A000E880F9800A811B81CA5DD040CE52DF4F6E
:1055B0002881C25DD040CD52DF4F3881C35DD040DD
:1055C000CC52DF4F4881C45DD040CB52DF4F588171
:1055D000C55DD040C253DF4F6881CE5CD040C1531F
:1055E000DF4F7881CF5CD040C053DF4F8881C05DF2
:1055F000D040CF52DF4F9881C15DD0400E945F1FE5
:10560000C451DF4FF881CC5ED040FF2331F068EE0B
:1056100073E080E090E00F943E090E948E1B0E9490
:10562000992180914F0790915007A0915107B09117
:105630005207C152DF4FE881F981CF5DD04081939D
:105640009193A193B193C152DF4FF983E883CF5D6A
:10565000D040D12C812C912C5401E1E0F0E0EC0FF2
:10566000FD1F24E0D29EE00DF11D11242081318127
:1056700042815381C501B4010F94BB0B4B015C0106
:10568000D394CD1450F7B101882777FD8095982FDA
:105690000F94360D2B013C019B01AC01C501B401F7
:1056A0000F949B0CC753DF4F688379838A839B8356
:1056B000C95CD040D12C812C912C5401E1E0F0E068
:1056C000EC0FFD1F34E0D39EE00DF11D1124C753F4
:1056D000DF4F288139814A815B81C95CD04060817C
:1056E0007181828193810F94BA0B9B01AC010F945D
:1056F000690F9B01AC01C501B4010F94BB0B4B01B9
:105700005C01D394CD14D0F6A30192010F949B0CAD
:105710000F94D60F2B013C01C353DF4F4881CD5C62
:10572000D040423008F417CD4AE050E0B10180EC9F
:1057300094E00E94AA1AE9ECF5E08491882341F0F4
:105740009091C00095FFFCCF8093C6003196F5CFB5
:10575000C551DF4F5881CB5ED040652F70E04AE0E5
:1057600050E080EC94E00E94AA1AE2ECF5E084910B
:10577000882341F09091C00095FFFCCF8093C60034
:105780003196F5CF40914F075091500760915107E6
:105790007091520726E030E080EC94E00E947C1B80
:1057A000C353DF4F8881CD5CD040823081F1EAEB7A
:1057B000F5E08491882341F09091C00095FFFCCFE3
:1057C0008093C6003196F5CF26E030E0C753DF4F17
:1057D000488159816A817B81C95CD04080EC94E02A
:1057E0000E947C1BEFEAF5E08491882341F09091C0
:1057F000C00095FFFCCF8093C6003196F5CF26E020
:1058000030E0B301A20180EC94E00E947C1B809107
:10581000C00085FFFCCF8AE08093C600A3CCC451B2
:10582000DF4FF881CC5ED040F11106C068EE73E026
:1058300080E090E00F943E090E94B01BC353DF4FFD
:105840002881CD5CD040222311F1E8EAF5E0849173
:10585000882341F09091C00095FFFCCF8093C60053
:105860003196F5CF26E030E0C753DF4F48815981AC
:105870006A817B81C95CD04080EC94E00E947C1BF3
:105880008091C00085FFFCCF8AE08093C600E3E9E9
:10589000F5E08491882341F09091C00095FFFCCF02
:1058A0008093C6003196F5CF26E030E0B301A20127
:1058B00080EC94E00E947C1B8091C00085FFFCCFAF
:1058C0008AE08093C6008091C00085FFFCCF8AE00B
:1058D0008093C600C451DF4F0FB6F894DEBF0FBEF1
:1058E000CDBFDF91CF911F910F91FF90EF90DF908F
:1058F000CF90BF90AF909F908F907F906F905F9070
:105900004F903F902F900895DF92EF92FF920F9368
:105910001F93CF93DF93E4E1F9E08491882341F072
:105920009091C00095FFFCCF8093C6003196F5CFD3
:10593000E091650584E0E89FF0011124E45DFB4EF1
:10594000408151816281738121E030E080EC94E0FC
:105950000E947C1BE1E1F9E08491882341F0909161
:10596000C00095FFFCCF8093C6003196F5CFE09143
:105970006505F0E0EE0FFF1FEA5BFB4E6081718171
:10598000882777FD8095982F0F94360DAB01BC01C9
:1059900021E030E080EC94E00E947C1BEDE0F9E037
:1059A0008491882341F09091C00095FFFCCF8093B3
:1059B000C6003196F5CF409126145091271460917E
:1059C00028147091291421E030E080EC94E00E94CA
:1059D0007C1BEAE0F9E08491882341F09091C000BB
:1059E00095FFFCCF8093C6003196F5CF60914414AB
:1059F00070914514882777FD8095982F0F94360D68
:105A0000AB01BC0121E030E080EC94E00E947C1B03
:105A100006E414E1BCE2EB2EB4E1FB2EC0E0D0E0E2
:105A20008AE3D82EE7E0F9E08491882341F0909151
:105A3000C00095FFFCCF8093C6003196F5CF4AE0B9
:105A400050E0BE0180EC94E00E94AA1A8091C00050
:105A500085FFFCCFD092C600F70141915191619131
:105A600071917F0121E030E080EC94E00E947C1B8A
:105A7000E4E0F9E08491882341F09091C00095FF23
:105A8000FCCF8093C6003196F5CFF80161917191FA
:105A90008F01882777FD8095982F0F94360DAB01E5
:105AA000BC0121E030E080EC94E00E947C1B219658
:105AB000C230D10509F0B6CFEFEFF8E0849188232A
:105AC00041F09091C00095FFFCCF8093C6003196C5
:105AD000F5CF8FEF9FEF0E944BB14AE050E0BC0141
